{
  "contractName": "Box",
  "abi": [
    {
      "inputs": [],
      "stateMutability": "nonpayable",
      "type": "constructor"
    },
    {
      "anonymous": false,
      "inputs": [
        {
          "indexed": true,
          "internalType": "address",
          "name": "previousOwner",
          "type": "address"
        },
        {
          "indexed": true,
          "internalType": "address",
          "name": "newOwner",
          "type": "address"
        }
      ],
      "name": "OwnershipTransferred",
      "type": "event"
    },
    {
      "anonymous": false,
      "inputs": [
        {
          "indexed": false,
          "internalType": "uint256",
          "name": "value",
          "type": "uint256"
        }
      ],
      "name": "ValueChanged",
      "type": "event"
    },
    {
      "anonymous": false,
      "inputs": [
        {
          "indexed": false,
          "internalType": "uint256",
          "name": "value",
          "type": "uint256"
        }
      ],
      "name": "ValueIncreased",
      "type": "event"
    },
    {
      "inputs": [],
      "name": "owner",
      "outputs": [
        {
          "internalType": "address",
          "name": "",
          "type": "address"
        }
      ],
      "stateMutability": "view",
      "type": "function",
      "constant": true
    },
    {
      "inputs": [],
      "name": "renounceOwnership",
      "outputs": [],
      "stateMutability": "nonpayable",
      "type": "function"
    },
    {
      "inputs": [
        {
          "internalType": "address",
          "name": "newOwner",
          "type": "address"
        }
      ],
      "name": "transferOwnership",
      "outputs": [],
      "stateMutability": "nonpayable",
      "type": "function"
    },
    {
      "inputs": [
        {
          "internalType": "uint256",
          "name": "value",
          "type": "uint256"
        }
      ],
      "name": "store",
      "outputs": [],
      "stateMutability": "nonpayable",
      "type": "function"
    },
    {
      "inputs": [],
      "name": "retrieve",
      "outputs": [
        {
          "internalType": "uint256",
          "name": "",
          "type": "uint256"
        }
      ],
      "stateMutability": "view",
      "type": "function",
      "constant": true
    },
    {
      "inputs": [],
      "name": "increment",
      "outputs": [],
      "stateMutability": "nonpayable",
      "type": "function"
    }
  ],
  "bytecode": "0x608060405234801561001057600080fd5b5061003f61002b6100d1640100000000026401000000009004565b6100d9640100000000026401000000009004565b6040518060400160405280600381526020017f426f7800000000000000000000000000000000000000000000000000000000008152506002908051906020019061008a92919061019d565b5033600360006101000a81548173ffffffffffffffffffffffffffffffffffffffff021916908373ffffffffffffffffffffffffffffffffffffffff1602179055506102a1565b600033905090565b60008060009054906101000a900473ffffffffffffffffffffffffffffffffffffffff169050816000806101000a81548173ffffffffffffffffffffffffffffffffffffffff021916908373ffffffffffffffffffffffffffffffffffffffff1602179055508173ffffffffffffffffffffffffffffffffffffffff168173ffffffffffffffffffffffffffffffffffffffff167f8be0079c531659141344cd1fd0a4f28419497f9722a3daafe3b4186f6b6457e060405160405180910390a35050565b8280546101a990610240565b90600052602060002090601f0160209004810192826101cb5760008555610212565b82601f106101e457805160ff1916838001178555610212565b82800160010185558215610212579182015b828111156102115782518255916020019190600101906101f6565b5b50905061021f9190610223565b5090565b5b8082111561023c576000816000905550600101610224565b5090565b6000600282049050600182168061025857607f821691505b6020821081141561026c5761026b610272565b5b50919050565b7f4e487b7100000000000000000000000000000000000000000000000000000000600052602260045260246000fd5b6107a0806102b06000396000f3fe608060405234801561001057600080fd5b506004361061007f576000357c0100000000000000000000000000000000000000000000000000000000900480632e64cec1146100845780636057361d146100a2578063715018a6146100be5780638da5cb5b146100c8578063d09de08a146100e6578063f2fde38b146100f0575b600080fd5b61008c61010c565b60405161009991906105d7565b60405180910390f35b6100bc60048036038101906100b791906104ef565b610116565b005b6100c66101d3565b005b6100d061025b565b6040516100dd919061057c565b60405180910390f35b6100ee610284565b005b61010a600480360381019061010591906104c6565b6102d8565b005b6000600154905090565b61011e6103d0565b73ffffffffffffffffffffffffffffffffffffffff1661013c61025b565b73ffffffffffffffffffffffffffffffffffffffff1614610192576040517f08c379a0000000000000000000000000000000000000000000000000000000008152600401610189906105b7565b60405180910390fd5b806001819055507f93fe6d397c74fdf1402a8b72e47b68512f0510d7b98a4bc4cbdf6ac7108b3c59816040516101c891906105d7565b60405180910390a150565b6101db6103d0565b73ffffffffffffffffffffffffffffffffffffffff166101f961025b565b73ffffffffffffffffffffffffffffffffffffffff161461024f576040517f08c379a0000000000000000000000000000000000000000000000000000000008152600401610246906105b7565b60405180910390fd5b61025960006103d8565b565b60008060009054906101000a900473ffffffffffffffffffffffffffffffffffffffff16905090565b60018060008282546102969190610603565b925050819055507f467bf4e6b104ae39d90650316861d9b49acbb0e8c21ea607db8be40d11afe3b26001546040516102ce91906105d7565b60405180910390a1565b6102e06103d0565b73ffffffffffffffffffffffffffffffffffffffff166102fe61025b565b73ffffffffffffffffffffffffffffffffffffffff1614610354576040517f08c379a000000000000000000000000000000000000000000000000000000000815260040161034b906105b7565b60405180910390fd5b600073ffffffffffffffffffffffffffffffffffffffff168173ffffffffffffffffffffffffffffffffffffffff1614156103c4576040517f08c379a00000000000000000000000000000000000000000000000000000000081526004016103bb90610597565b60405180910390fd5b6103cd816103d8565b50565b600033905090565b60008060009054906101000a900473ffffffffffffffffffffffffffffffffffffffff169050816000806101000a81548173ffffffffffffffffffffffffffffffffffffffff021916908373ffffffffffffffffffffffffffffffffffffffff1602179055508173ffffffffffffffffffffffffffffffffffffffff168173ffffffffffffffffffffffffffffffffffffffff167f8be0079c531659141344cd1fd0a4f28419497f9722a3daafe3b4186f6b6457e060405160405180910390a35050565b6000813590506104ab8161073c565b92915050565b6000813590506104c081610753565b92915050565b6000602082840312156104d857600080fd5b60006104e68482850161049c565b91505092915050565b60006020828403121561050157600080fd5b600061050f848285016104b1565b91505092915050565b61052181610659565b82525050565b60006105346026836105f2565b915061053f826106c4565b604082019050919050565b60006105576020836105f2565b915061056282610713565b602082019050919050565b6105768161068b565b82525050565b60006020820190506105916000830184610518565b92915050565b600060208201905081810360008301526105b081610527565b9050919050565b600060208201905081810360008301526105d08161054a565b9050919050565b60006020820190506105ec600083018461056d565b92915050565b600082825260208201905092915050565b600061060e8261068b565b91506106198361068b565b9250827fffffffffffffffffffffffffffffffffffffffffffffffffffffffffffffffff0382111561064e5761064d610695565b5b828201905092915050565b60006106648261066b565b9050919050565b600073ffffffffffffffffffffffffffffffffffffffff82169050919050565b6000819050919050565b7f4e487b7100000000000000000000000000000000000000000000000000000000600052601160045260246000fd5b7f4f776e61626c653a206e6577206f776e657220697320746865207a65726f206160008201527f6464726573730000000000000000000000000000000000000000000000000000602082015250565b7f4f776e61626c653a2063616c6c6572206973206e6f7420746865206f776e6572600082015250565b61074581610659565b811461075057600080fd5b50565b61075c8161068b565b811461076757600080fd5b5056fea2646970667358221220b11cbf555117396e2cfed5e8b0492d42a012de4f385caaa1d533bb995807d86664736f6c63430008010033",
  "immutableReferences": {},
  "source": "pragma solidity ^0.8.0;\r\n\r\n//smart contracts to store stuff like in a box and retrieve it\r\n\r\nimport \"@openzeppelin/contracts/access/Ownable.sol\";\r\n\r\ncontract Box is Ownable{\r\n    uint private _value;\r\n    string private name;\r\n    address private _owner;\r\n\r\n\r\n    event ValueChanged(uint value);\r\n    event ValueIncreased(uint value);\r\n\r\n    constructor(){\r\n        name = \"Box\";\r\n        _owner = msg.sender;\r\n    }\r\n\r\n    function store(uint value) public onlyOwner {\r\n        _value = value;\r\n        emit ValueChanged(value);\r\n    }\r\n\r\n    function retrieve() public view returns(uint) {\r\n        return _value;\r\n    }\r\n    \r\n    function increment() public {\r\n        _value += 1;\r\n        emit ValueIncreased(_value);\r\n    }\r\n\r\n}",
  "sourcePath": "C:/Users/HP/Desktop/blockdev/smart_contracts/box/contracts/box.sol",
  "compiler": {
    "name": "solc",
    "version": "0.8.1+commit.df193b15.Emscripten.clang"
  },
  "schemaVersion": "3.4.1",
  "updatedAt": "2022-03-20T22:57:25.844Z",
  "networkType": "ethereum",
  "devdoc": {
    "kind": "dev",
    "methods": {
      "owner()": {
        "details": "Returns the address of the current owner."
      },
      "renounceOwnership()": {
        "details": "Leaves the contract without owner. It will not be possible to call `onlyOwner` functions anymore. Can only be called by the current owner. NOTE: Renouncing ownership will leave the contract without an owner, thereby removing any functionality that is only available to the owner."
      },
      "transferOwnership(address)": {
        "details": "Transfers ownership of the contract to a new account (`newOwner`). Can only be called by the current owner."
      }
    },
    "version": 1
  },
  "userdoc": {
    "kind": "user",
    "methods": {},
    "version": 1
  }
}